:0C0AEF000A0800010203040506070809BC
:10093500C2A7AE1AAF1B7C007D0A120A538E168F12
:1009450017AE1AAF1B7C007D0A120A538C128D1349
:10095500AE1CAF1D7C007D0A120A538E188F19AE8E
:100965001CAF1D7C007D0A120A538C148D1574086A
:100975002517F8E6F580C2A3D2A374082513F8E677
:10098500F580C2A4D2A474082519F8E6F5B0C2A270
:10099500D2A274082515F8E6F5B0C2A1D2A17FF45C
:0209A5007E01D1
:1009A700E4FDFCD3ED9FEC9E5015E4FBFA0BBB0076
:0F09B700010AEB647D4A70F50DBD00010C80E470
:0109C600220E
:10080000751A00751B19751C00751D147F01800277
:100810007F00EF700302089ED296D2A5C297C2A6AF
:10082000C295120935E51D451C7054D297D2A5C258
:1008300096C2A6C295C2A7F51A751B05AE1AAF1BC4
:100840007C007D0A120A53AA06AB078A168B17AEE4
:100850001AAF1B7C007D0A120A538C128D138A1862
:100860008B1912096FE51B451A700312089FE51BCF
:10087000151B7002151AC3E51A6480948050BDE5FB
:100880001B151B7002151AE51D151D7002151CC3E2
:0F089000E51C64809480400302080C02081022CB
:100ADE00C295C2A5C296C2A6C297C2A7120800802E
:010AEE00FB0C
:10089F00751A00751B14751C00751D197F018002D8
:1008AF007F00EF7003020934D295D2A6C297C2A57A
:1008BF00C296120935E51B451A704BD295D2A7C2C5
:1008CF0097C2A5C296C2A6F51C751D05AE1CAF1D1D
:1008DF007C007D0A120A53AA06AB078A168B17AE45
:1008EF001CAF1D7C007D0A120A538C128D138A18BF
:1008FF008B1912096FE51D151D7002151CC3E51C20
:10090F006480948050C6E51B151B7002151AE51DF7
:10091F00151D7002151CC3E51C64809480400302F2
:06092F0008AB0208AF2234
:030000000209C72B
:0C09C700787FE4F6D8FD75811D020A0E51
:100A5300C2D5EC30E709B2D5E4C39DFDE49CFCEEBE
:100A630030E715B2D5E4C39FFFE49EFE120A89C3A3
:100A7300E49DFDE49CFC8003120A8930D507C3E49E
:060A83009FFFE49EFE222D
:1009D300020ADEE493A3F8E493A34003F68001F252
:1009E30008DFF48029E493A3F85407240CC8C33325
:1009F300C4540F4420C8834004F456800146F6DFF4
:100A0300E4800B0102040810204080900AEFE47E8A
:100A1300019360BCA3FF543F30E509541FFEE493E8
:100A2300A360010ECF54C025E060A840B8E493A3AF
:100A3300FAE493A3F8E493A3C8C582C8CAC583CADA
:100A4300F0A3C8C582C8CAC583CADFE9DEE780BE92
:010AFB0000FA
:100A8900BC000BBE0029EF8DF084FFADF022E4CC51
:100A9900F875F008EF2FFFEE33FEEC33FCEE9DEC1A
:100AA900984005FCEE9DFE0FD5F0E9E4CEFD22ED60
:100AB900F8F5F0EE8420D21CFEADF075F008EF2FAA
:100AC900FFED33FD4007985006D5F0F222C398FD9B
:050AD9000FD5F0EA2238
:00000001FF
